:020000020000FC
:040000000C9422003A
:040010000C949E06A8
:040024000C947E06B4
:100040000C948D060FEF0DBF18E01EBF00E8009363
:10005000610002E0009361000FE304B90CEF0AB9FC
:100060000EE305B901E207B90EE100936C0002E06E
:10007000009368000E94720601E000936E000E94E7
:10008000770601E0009370000E942D06789460FDD1
:100090000C94910130FD02C00C9476013E7F1091CA
:1000A000100213951C3311F00C9474011127109356
:1000B000100210910B020091FF01039513950A3075
:1000C00011F00C946F0100270093FF0100910002D2
:1000D0000395063011F00C946A01112710930B025E
:1000E00000270093000210910C0200910102139569
:1000F0000395183111F00C94580100270093010268
:10010000112710930C0200910202002700930202B3
:1001100010910D02139500910E02013061F1023031
:10012000A1F0033041F1043011F1053021F1063026
:10013000F1F0073001F10830F1F00930C1F00A3078
:10014000D1F00B30A1F00C30B1F010930D021091F2
:100150000F02103031F410910D021E3181F00C9419
:10016000430110910D021D3151F00C9443011F31D8
:1001700031F00C944301103211F00C94430101E072
:100180000093030200270093040211E010930D0274
:1001900010910E0213951D3011F00C942C0111E0FA
:1001A00010930E0201E0009305020027009306025F
:1001B00010910F021395143009F4112710930F02B8
:1001C0001091110200910702139503950A3011F066
:1001D0000C94260100270093070200910802039562
:1001E0000A3011F00C942001002700930802112717
:1001F00010931102109112021395009109020395B8
:100200000A30C1F400270093090200910A02039505
:100210000A3051F4002700930A02112710931202AA
:1002200010930F020C94760100930A0210931202AD
:100230000C94760100930902109312020C9476013B
:1002400000930802109311020C94760100930702A8
:10025000109311020C9476010091050203950A3067
:1002600061F40027009305020091060203951093A4
:100270000E02009306020C9476010093050210937F
:100280000E020C9476010091030203950A3059F492
:1002900000270093030200910402039510930D02BE
:1002A0000093040223C010930D02009303021EC0AA
:1002B0000A3059F4002700930102009102020395CD
:1002C00010930C020093020211C010930C020093D1
:1002D00001020CC010930B020093000207C01093A0
:1002E0000B020093FF0102C0109310020C947801DE
:1002F00033FD0C947D010C945B0500911602109166
:100300000C02011711F00C945B050091130210917F
:100310000B02011711F00C945B0533FD30610C9456
:100320005B0550FD0C949D0151FD0C94610252FD42
:100330000C94E00353FD0C949A04112710931002BF
:1003400061FD0C94020231FD0C94AB0132FD0C9462
:10035000D6010C945B053D7F10910C0200910102C7
:100360001395183111F00C94BF010027009301027E
:1003700000930202112710930C020C945B05039565
:100380000A3011F00C94D001002700930102009173
:10039000020203950093020210930C020C945B0579
:1003A0000093010210930C020C945B053B7F1091AB
:1003B0000C02009101021A951F3F11F00C94EB0101
:1003C00003E00093010202E00093020217E11093A0
:1003D0000C020C945B050A950F3F11F00C94FC0184
:1003E00009E000930102009102020A9500930202C3
:1003F00010930C020C945B050093010210930C0205
:100400000C945B0531FD0C940A0232FD0C9435020C
:100410000C945B053D7F10910B020091FF01139539
:100420001C3311F00C941E0200270093FF0100936F
:100430000002112710930B020C945B0503950A3000
:1004400011F00C942F0200270093FF01009100028D
:1004500003950093000210930B020C945B0500932C
:10046000FF0110930B020C945B053B7F10910B0274
:100470000091FF011A951F3F11F00C944A0209E008
:100480000093FF0105E0009300021BE310930B02B1
:100490000C945B050A950F3F11F00C945B0209E088
:1004A0000093FF01009100020A950093000210934F
:1004B0000B020C945B050093FF0110930B020C944C
:1004C0005B0561FD0C942B0331FD0C946C0232FD35
:1004D0000C94BE020C945B053D7F10910D020091BF
:1004E0000E0213950130B1F00230B9F0033091F0F3
:1004F0000430F1F0053071F00630D1F0073051F0E2
:10050000083041F00930A1F00A3021F00B3081F0C1
:100510000C3001F0103279F018C000910F02003059
:1005200009F003C01E3139F010C01D3121F00DC09B
:100530001F3109F00AC011E01093030210930D025D
:100540001127109304020C945B050091030203959C
:100550000A3011F00C94B8020027009303020091B6
:10056000040203950093040210930D020C945B05A2
:100570000093030210930D020C945B053B7F1091D6
:100580000D0200910E021A95103011F00C94120316
:100590000130B1F00230F9F0033091F00430B9F1DC
:1005A000053071F0063099F1073051F0083041F014
:1005B000093069F10A3021F00B3049F10C3001F0BB
:1005C00011E01093030213E0109304021FE1109353
:1005D0000D020C945B0500910F02003011F00C9499
:1005E000FC0219E01093030212E0109304021DE1D3
:1005F00010930D020C945B0518E01093030212E0B7
:10060000109304021CE110930D020C945B0510E0A2
:100610001093030213E0109304021EE110930D02E5
:100620000C945B05009103020A950F3F11F00C94A6
:10063000250309E000930302009104020A95009348
:10064000040210930D020C945B05009303021093B7
:100650000D020C945B0531FD0C94330332FD0C94B8
:100660005E030C945B053D7F10910E020091050224
:1006700013951D3011F00C94470311E010930E02F6
:10068000109305021127109306020C948A03039518
:100690000A3011F00C9458030027009305020091D2
:1006A000060203950093060210930E020C948A032F
:1006B0000093050210930E020C948A033B7F109165
:1006C0000E02009105021A95103011F00C9473037C
:1006D00012E01093050211E0109306021CE0109343
:1006E0000E020C948A030A950F3F11F00C948403B8
:1006F00009E000930502009106020A9500930602A4
:1007000010930E020C948A030093050210930E02BC
:100710000C948A0310910D0200910E020130B1F089
:10072000023009F1033091F00430D9F1053071F055
:100730000630B9F1073051F0083041F0093089F145
:100740000A3021F00B3069F10C3001F00FE1011794
:10075000A8F500930D0201E00093030203E000936B
:1007600004020C945B0500910F02003069F00CE16B
:10077000011720F500930D0208E00093030202E048
:10078000009304020C945B050DE10117B8F400938B
:100790000D0209E00093030202E0009304020C94AE
:1007A0005B050EE1011750F400930D0200E0009389
:1007B000030203E0009304020C945B050C945B05B8
:1007C00031FD0C94E80332FD0C9440040C945B055D
:1007D0003D7F10910F021395143009F411271093E7
:1007E0000F021091110200910702139503950A3030
:1007F00011F00C943A0400270093070200910802BC
:1008000003950A3011F00C9434040027112700934B
:10081000080210931102009109021091120203952F
:1008200013950A3011F00C942E040027009309024E
:1008300000910A0203950A3011F00C942804002755
:1008400000930A020093120200930F020C945B05BE
:1008500000930A02109312020C945B0500930902A4
:10086000109312020C945B0510931102009308027E
:100870000C945B0510931102009307020C945B0526
:100880003B7F10910F021A951F3F09F413E010935C
:100890000F0210911102009107021A950A950F3F5D
:1008A00011F00C94940409E00093070200910802EF
:1008B0000A950F3F11F00C948E0409E00093080292
:1008C00013E61093110200910902109112020A9589
:1008D0001A950F3F11F00C94880409E00093090267
:1008E00000910A020A950F3F11F00C94820409E06E
:1008F00000930A0213E61093120213E010930F0202
:100900000C945B051093120200930A020C945B0591
:1009100010931202009309020C945B0510931102CC
:10092000009308020C945B051093110200930702D8
:100930000C945B0561FD0C94FC0431FD0C94A50442
:1009400032FD0C94D0040C945B053D7F109116028F
:10095000009117021395183111F00C94B904002777
:1009600000931702009318021127109316020C949B
:100970005B0503950A3011F00C94CA04002700931C
:1009800017020091180203950093180210931602A3
:100990000C945B0500931702109316020C945B05F0
:1009A0003B7F10911602009117021A951F3F11F01C
:1009B0000C94E50403E00093170202E00093180290
:1009C00017E1109316020C945B050A950F3F11F086
:1009D0000C94F60409E000931702009118020A959E
:1009E00000931802109316020C945B0500931702F3
:1009F000109316020C945B0531FD0C94040532FD36
:100A00000C942F050C945B053D7F1091130200910F
:100A1000140213951C3311F00C9418050027009351
:100A20001402009315021127109313020C945B0516
:100A300003950A3011F00C94290500270093140245
:100A400000911502039500931502109313020C9464
:100A50005B0500931402109313020C945B053B7F1B
:100A600010911302009114021A951F3F11F00C947B
:100A7000440509E00093140205E0009315021BE30E
:100A8000109313020C945B050A950F3F11F00C9420
:100A9000550509E000931402009115020A95009390
:100AA0001502109313020C945B050093140210932B
:100AB00013020C945B0584FD02C00C9474054098ED
:100AC0002D9A2C9A2B9A2A9A0BB115B10C6F1360A0
:100AD00050FD0F7751FD0B7F52FD0F7B33FD077FDC
:100AE0000BB915B90C94210680FD0C94800581FD8D
:100AF0000C949E0582FD0C94BC0583FD0C94DA05D4
:100B0000409A2D982C9A2B9A2A9A60FF09C052FD80
:100B100002C062FF05C070FD03C02AE00C94F80516
:100B200050FD2091020251FD2091040252FD2091BE
:100B30000A0253FD209118020C94F805409A2D9A50
:100B40002C982B9A2A9A60FF09C052FD02C062FFBE
:100B500005C070FD03C02AE00C94F80550FD2091FB
:100B6000010251FD2091030252FD2091090253FD23
:100B7000209117020C94F805409A2D9A2C9A2B98E4
:100B80002A9A60FF09C052FD02C061FF05C070FDD6
:100B900003C02AE00C94F80550FD2091000251FD9D
:100BA0002091060252FD2091080253FD209115026A
:100BB0000C94F805409A2D9A2C9A2B9A2A9860FF4B
:100BC00009C052FD02C061FF05C070FD03C02AE0EC
:100BD0000C94F80550FD2091FF0151FD2091050274
:100BE00052FD2091070253FD209114020C94F80548
:100BF000FDE0E6EDE20F08F4F395049115B1000F66
:100C000010F01E7F01C0116052FD0AC060FD0AC0D5
:100C100050FD04C051FD06C053FD04C070FD02C06C
:100C2000126001C01D7F34FD0C9418060C941E0642
:100C300070FF0C941E06459A0C941F0645980BB93C
:100C400015B90C94470022E01FEF0FEF0A95F1F75A
:100C50001A95D9F72A95C1F7089500E00093FF018E
:100C60000093000200930102009302020093040229
:100C7000009306020093090200930F0200931302EF
:100C800000931402009315020093160200931702BA
:100C90000093180201E0009303020093050202E0B2
:100CA0000093080200930A0204E00093070210E098
:100CB0001093100210930B0210930C0210930F026A
:100CC00011E010930D0210930E0218E1109311021F
:100CD00014E1109312027727442781E051E030E0BD
:100CE00062E0089505E005BD0DE306BD089504E04A
:100CF0000093B10005E40093B20008950F930FB77D
:100D00000F9305E40093B20084FD02C0880F01C078
:100D100081E00F910FBF0F9118950F930FB70F93AD
:100D20000DE306BD43954A3029F44427739570FFBF
:100D300001C031600F910FBF0F9118950F930FB73E
:100D40000F9306B101FF30C002FF1FC003FF13C0A5
:100D500004FF01C03CC034FD0C94E50660FD0C941A
:100D6000B90653FF0C94E70633FD0C94E3060C948C
:100D7000E10632602CC034FD0C94E50660FD0C9455
:100D8000C3060C94E706346022C034FD0C94E506DB
:100D900060FF08C061FF03C06D7F646018C06B7F97
:100DA000626015C063E013C034FD0C94E50660FD7D
:100DB00004C0583021F0550F0AC06E7F08C051E0C2
:100DC00006C0386004C0377F02C03F7EFCCF0F9161
:100DD0000FBF0F91189580F24860322404F0002074
:060DE000FE068C420C1C13
:00000001FF
